:020000040800F2
:1000000000000320E92400080D1E0008151E00084A
:100010001D1E0008251E00082D1E00083925000899
:10002000000000000000000000000000351E000875
:10003000431E000800000000511E00085F1E00085B
:100040003925000839250008392500083925000818
:100050003925000839250008392500083925000808
:1000600039250008392500083925000839250008F8
:1000700039250008392500083925000839250008E8
:1000800039250008392500083925000839250008D8
:1000900039250008392500083925000839250008C8
:1000A00039250008392500083925000839250008B8
:1000B00039250008392500083925000839250008A8
:1000C0003925000839250008392500083925000898
:1000D0003925000839250008392500083925000888
:1000E0003925000839250008392500083925000878
:1000F0003925000839250008392500083925000868
:100100003925000839250008392500083925000857
:100110003925000839250008392500083925000847
:100120003925000839250008392500083925000837
:100130003925000839250008392500083925000827
:100140003925000839250008392500083925000817
:100150003925000839250008392500083925000807
:10016000392500086D1E00083925000839250008CA
:100170003925000800000000811E00080000000072
:1001800039250008392500083925000839250008D7
:1001900039250008392500083925000839250008C7
:1001A00039250008392500083925000839250008B7
:1001B00039250008392500083925000839250008A7
:1001C0003925000839250008392500083925000897
:1001D0003925000839250008392500083925000887
:1001E0003925000839250008392500083925000877
:0401F00039250008A5
:1001F40010B5054C237833B9044B13B10448AFF35D
:1002040000800123237010BDE001002000000000E5
:100214001C0C020808B5034B1BB103490348AFF398
:10022400008008BD00000000E40100201C0C02084E
:1002340010F8012B11F8013B012A28BF9A42F7D08C
:10024400D01A7047034613F8012B002AFBD1181A61
:10025400013870477BB972B90029BEBF00204FF046
:10026400004106E008BF00281CBF6FF000414FF0BA
:10027400FF3000F0C9B9ADF1080C6DE904CE0029D6
:1002840009DB002B1ADB00F04DF8DDF804E0DDE9B2
:10029400022304B07047404261EB4101002B1BDB99
:1002A40000F040F8DDF804E0DDE9022304B0404248
:1002B40061EB4101524263EB43037047524263EBEB
:1002C400430300F02FF8DDF804E0DDE9022304B075
:1002D400404261EB41017047524263EB430300F03B
:1002E40021F8DDF804E0DDE9022304B0524263EBB7
:1002F4004303704753B94AB9002908BF00281CBFFB
:100304004FF0FF314FF0FF3000F07EB9ADF1080C33
:100314006DE904CE00F006F8DDF804E0DDE902231F
:1003240004B070472DE9F04F099D0C46002B4DD1C8
:100334008A420F4684469646B2FA82F360D94BB19C
:1003440002FA03FEC3F120029F4000FA03FC20FAE4
:1003540002F217434FEA1E461FFA8EF44FEA1C427C
:10036400B7FBF6F106FB117701FB04F042EA074202
:10037400904208D91EEB020201F1FF3702D29042EB
:1003840000F22D813946121A1FFA8CFCB2FBF6F0EA
:1003940006FB102200FB04F44CEA024C644508D925
:1003A4001EEB0C0C00F1FF3202D2644500F21A81FC
:1003B400104640EA0140ACEB040C002125B12CFAB4
:1003C40003F30022C5E90032BDE8F08F8B4205D962
:1003D4000DB1C5E9000100210846F5E7B3FA83F140
:1003E40000294DD1A342C0F0F280904280F0EF800A
:1003F400064623460846002DE6D0C5E90063E3E738
:10040400002B40F0A2808A1A4FEA1E471FFA8EF68C
:100414000121B2FBF7F407FB14204FEA1C4242EA25
:10042400004206FB04F090420FD91EEB020204F1D5
:10043400FF382CBF4FF001094FF00009904203D957
:10044400B9F1000F00F0C8804446121A1FFA8CFC60
:10045400B2FBF7F007FB102200FB06F64CEA024C55
:10046400664508D91EEB0C0C00F1FF3202D266453A
:1004740000F2BB801046ACEB060C40EA04409DE75A
:10048400C1F120068B4004FA01FE22FA06F720FA95
:1004940006FCF4408A401F434EEA0C0300FA01FEB6
:1004A4004FEA17484FEA13491FFA87FCB4FBF8F0E8
:1004B40008FB104449EA044400FB0CF9A1450ED999
:1004C4003C1900F1FF3A2CBF4FF0010B4FF0000B29
:1004D400A14503D9BBF1000F00F093805046A4EB73
:1004E40009041FFA83F9B4FBF8F308FB134403FB74
:1004F4000CFC49EA0444A44506D93C1903F1FF382D
:1005040001D2A4457AD8434643EA0040A4EB0C0444
:10051400A0FB02984445CC46434602D306D1CE45BF
:1005240004D20138B9EB020C68EB07035DB1BEEBF2
:100534000C0264EB030404FA06F622FA01F3CC403D
:100544001E43C5E9006400213EE702FA03FEC3F13D
:10055400200104FA03F200FA03FCCC404FEA1E47E0
:1005640020FA01F11FFA8EF6B4FBF7F00A4307FBF9
:100574001044110C41EA044100FB06F48C420ED9EC
:100584001EEB010100F1FF382CBF4FF001094FF0C1
:1005940000098C4202D9B9F1000F2CD04046091B46
:1005A40092B2B1FBF7F407FB141142EA014204FBD7
:1005B40006F1914207D91EEB020204F1FF3801D281
:1005C400914215D84446521A44EA004121E7861A5A
:1005D40064EB030301200EE7023C724435E7023961
:1005E4007244D0E6F4440238E3E6F444023842E7C5
:1005F400023C7244E7E702387144D0E7023B3C44D2
:1006040082E702383C446AE7704700BF80B485B093
:1006140000AF7860084BDA6C07497B681343CB64FE
:10062400054BDA6C7B681340FB60FB6800BF143732
:10063400BD465DF8047B70470010024080B485B06D
:1006440000AF7860084BDA6D07497B681343CB65CC
:10065400054BDA6D7B681340FB60FB6800BF143701
:10066400BD465DF8047B70470010024080B500AFC2
:1006740002F0C4F900F02EF800F092F800F0AEFD9C
:1006840000F0BEF800F036F900F056F900F03CFD39
:1006940000F0F2F900F030FA00F042FA00F08EFABD
:1006A40000F0D8FA00F014FB00F0AEFB002001F0DB
:1006B40043FF00F0C7FB00F001FC00F04FFC00F02A
:1006C40073FC00F0EBFC1CF0A3FD1CF049FE00BF22
:1006D400FDE7000080B598B000AF07F11803482289
:1006E400002118461DF046FE3B1D00221A605A6088
:1006F4009A60DA601A61002005F00AFE0346002BB6
:1007040001D000F099FE05F0E5FD244BD3F89030BC
:10071400224A23F01803C2F890301623BB618123C8
:100724003B624FF480737B624023BB6201237B6393
:100734000023BB63B023FB6302237B640123BB64FC
:100744000C23FB6437233B6507237B650223BB65CE
:100754000223FB6507F11803184605F079FE0346EA
:10076400002B01D000F068FE0F237B600323BB60E5
:100774000023FB6000233B6100237B613B1D0521BB
:10078400184606F03BFB0346002B01D000F054FE54
:1007940008F02CFA00BF6037BD4680BD001002404F
:1007A40080B5A6B000AF3B1D9422002118461DF071
:1007B400E1FD4FF490437B6000233B674FF080538F
:1007C400C7F884300223BB600423FB6030233B6101
:1007D40011237B610223BB610223FB61074B3B6254
:1007E4003B1D184606F0DCFE0346002B01D000F04A
:1007F40023FE00BF9837BD4680BD00BF0000010145
:1008040080B58AB000AF07F11C0300221A605A6059
:100814009A603B1D00221A605A609A60DA601A617D
:100824005A61314B314A1A602F4B00225A602E4BC9
:1008340000229A602C4B0022DA602B4B00221A61B2
:10084400294B04225A61284B00221A76264B002297
:100854005A76254B0122DA61234B002283F82020AB
:10086400214B00229A62204B0022DA621E4B0022A6
:1008740083F830201C4B00225A631B4B002283F860
:100884003820194B0022DA64174802F0F1FA0346C3
:10089400002B01D000F0D0FD0023FB6107F11C0305
:1008A4001946114803F040F80346002B01D000F02C
:1008B400C3FD0F4B7B600623BB600023FB607F23DB
:1008C4003B6104237B610023BB613B1D1946064841
:1008D40002F01AFC0346002B01D000F0ADFD00BF6E
:1008E4002837BD4680BD00BFFC01002000800242C5
:1008F4000002B02580B500AF0D4B0E4A1A600C4BB8
:1009040000221A710A4B00225A71094B00225A61C3
:10091400074B00229A61064B01221A62044803F035
:10092400B7F90346002B01D000F086FD00BF80BD5F
:10093400640200200030024080B500AF484B494AB1
:100944001A60474B01221A71454B00229A60444BAE
:100954000222DA60424B4FF400521A61404B0022EB
:100964005A613F4B00229A613D4B0022DA613C4BB5
:1009740000221A623A4B00225A62394B01229A62CF
:10098400374B0022DA62364B00221A63344803F0F4
:1009940071FA0346002B01D000F04EFD324B334A6E
:1009A4001A60314B01221A712F4B00229A602E4B90
:1009B4000222DA602C4B00221A612B4B00225A616E
:1009C400294B00229A61284B0222DA61264B00222D
:1009D4001A62254B00225A62234B01229A62224B4F
:1009E4000022DA62204B00221A631F4803F042FA05
:1009F4000346002B01D000F01FFD1D4B1D4A1A6059
:100A04001B4B01221A711A4B00229A60184B0222C6
:100A1400DA60174B4FF400521A61154B00225A61E9
:100A2400134B00229A61124B0022DA61104B002210
:100A34001A620F4B00225A620D4B01229A620C4B30
:100A44000022DA620A4B00221A63094803F012FA00
:100A54000346002B01D000F0EFFC00BF80BD00BFB7
:100A64008802002000600140C00200202060014094
:100A7400F80200204060014080B500AF1B4B1C4AC7
:100A84001A601A4B1B4A5A60184B00229A60174B83
:100A94000122DA60154B00221A61144B00225A61BC
:100AA400124B00229A61114B0022DA610F4B002293
:100AB4001A620E4803F076FC0346002B01D000F0C6
:100AC400BBFC0021094803F0FCFC0346002B01D0C9
:100AD40000F0B2FC0021054803F03EFD0346002B64
:100AE40001D000F0A9FC00BF80BD00BF300300208E
:100AF400005400408156504080B500AF002003F000
:100B040077FD0346002B01D000F096FC03F090FD26
:100B14000346002B01D000F08FFC00BF80BD000015
:100B240080B500AF224B234A1A60214B224A5A60F7
:100B34001F4B00229A601E4B0022DA601C4B0022DD
:100B44001A611B4B0C225A61194B00229A61184BF3
:100B540000221A62164B00225A62154B00229A6236
:100B6400134B00225A6612480BF086FC0346002BF6
:100B740001D000F061FC00210D480CF01FFA03467F
:100B8400002B01D000F058FC002109480CF054FA65
:100B94000346002B01D000F04FFC05480CF0D5F9BA
:100BA4000346002B01D000F047FC00BF80BD00BF0E
:100BB40084030020008000402433030080B500AF8C
:100BC400224B234A1A60214B4FF4E1325A601F4BE7
:100BD40000229A601D4B0022DA601C4B00221A612D
:100BE4001A4B0C225A61194B00229A61174B0022AE
:100BF400DA61164B00221A62144B00225A62134B1C
:100C040000229A6211480BF037FC0346002B01D0F6
:100C140000F012FC00210D480CF0D0F90346002B23
:100C240001D000F009FC002108480CF005FA034645
:100C3400002B01D000F000FC04480CF086F90346B8
:100C4400002B01D000F0F8FB00BF80BD1804002089
:100C54000038014080B500AF1B4B1C4A1A601A4B88
:100C640001225A60184B00229A60174B0022DA6066
:100C7400154B20221A61144B01225A61124B002297
:100C84009A61114B0022DA610F4B00221A620E4B5B
:100C940001225A620C4B00229A620B4B0022DA6248
:100CA400094B00221A63084B08225A63064B0022A0
:100CB4009A63054803F0CCFC0346002B01D000F0F6
:100CC400BBFB00BF80BD00BFAC0400200010024489
:100CD40080B500AF474B484A1A60464B00225A641D
:100CE400444B00225A60434B40229A64414B0022F9
:100CF400DA64404B00221A653E4B00229A603D4B59
:100D040000225A613B4B00229A613A4B0022DA617D
:100D1400384B3A4A1A62374B0022DA60354B0022CC
:100D2400DA62344B00221A63324B00225A63314B8D
:100D3400002283F838202F4B0122DA632D4B4FF425
:100D440080721A642B4B08225A652A4B01229A6539
:100D5400284B0022DA65274B00221A66254B002215
:100D64005A66244B00229A66224B0022DA66214BF3
:100D740001221A671F4B00225A671E4808F08CFA9A
:100D84000346002B01D000F057FB1D4B1D4A1A608F
:100D94001B4B04225A641A4B00225A60184B00223F
:100DA4009A60174B00225A61154B0022DA61144BEA
:100DB4004BF680321A62124B0022DA60104B00228A
:100DC400DA620F4B00221A630D4B002283F838209D
:100DD4000B4B0122DA630A4B4FF480721A64084801
:100DE40008F05AFA0346002B01D000F025FB00BF9F
:100DF40080BD00BF040500200454014000EE020041
:100E04009C0500202454014080B400AF0B4B0C4AD5
:100E14001A600A4B00225A60084B00229A60074B62
:100E24004FF48042DA60054B00221A61034B002222
:100E34005A6100BFBD465DF8047B7047340600204C
:100E440000800C4280B500AF1A4B1B4A1A60194B44
:100E54004FF482725A60174B00229A60154B4FF47C
:100E64004072DA60134B00221A61124B00225A615D
:100E7400104B00229A610F4B1022DA610D4B0022B5
:100E84001A620C4B00225A620A4B00229A62094BE6
:100E94000722DA62074B00221A63064B08225A63C0
:100EA40004480AF043FA0346002B01D000F0C4FAC8
:100EB40000BF80BDB00600200030014080B588B07E
:100EC40000AF07F10C0300221A605A609A60DA60DE
:100ED4001A613B4600221A605A609A601D4B1E4AF2
:100EE4001A601C4B00225A601A4B00229A60194B5C
:100EF4004FF6FF72DA60174B00221A61154B00227D
:100F04009A6114480AF0FDFA0346002B01D000F060
:100F140093FA0723FB6010233B6107F10C03194686
:100F24000C480AF0BBFC0346002B01D000F084FA05
:100F340000233B600023BB603B46194605480BF089
:100F440073F90346002B01D000F076FA00BF203776
:100F5400BD4680BD140700200008004080B500AFE6
:100F64000F4B104A1A600E4B00225A600C4B0022A1
:100F74009A600B4B4FF6FF72DA60094B00221A613C
:100F8400074B00225A61064B00229A6104480AF07A
:100F9400B8FA0346002B01D000F04EFA00BF80BD22
:100FA400600700200044014080B594B000AF07F111
:100FB400340300221A605A609A60DA601A615A6136
:100FC4009A613B463422002118461DF0D3F9314B77
:100FD400314A1A602F4B00225A602E4B00229A602D
:100FE4002C4B4FF6FF72DA602A4B00221A61294B10
:100FF40000225A61274B00229A6126480AF081FA9E
:101004000346002B01D000F017FA22480AF0D0FA68
:101014000346002B01D000F00FFA60237B6300230A
:10102400BB630023FB6300233B6400237B64002336
:10103400BB640023FB6407F13403002219461548FE
:101044000AF018FB0346002B01D000F0F5F9002349
:101054003B6000237B600023BB600023FB60002314
:101064003B614FF400537B610023BB6100233B636E
:101074003B46194607480BF05FF90346002B01D0A5
:1010840000F0DAF9034800F0BBFD00BF5037BD465D
:1010940080BD00BFAC0700200048014080B586B089
:1010A40000AF3B4600221A605A609A60DA601A6107
:1010B4005A614FF40000FFF7C1FA0120FFF7A6FAC6
:1010C4000220FFF7A3FA4FF400433B6003237B6045
:1010D40000233B613B46194609480CF0DEFA4FF405
:1010E40000433B6003237B6000233B613B4619467E
:1010F40004480CF0D2FA00BF1837BD4680BD00BFCB
:10110400000002420004024280B588B000AF3B46B2
:101114002022002118461DF02DF92D4B2D4A1A606E
:101124002B4B2D4A5A602A4B00229A60284B0022EE
:10113400DA60274B00221A61254B10225A61244B96
:1011440000229A61224B0022DA61214B00221A62AA
:101154001F4B4FF480525A621D4B00229A621C4B63
:101164000022DA621A4B00221A63194B00225A63D6
:10117400174B00229A63164B0022DA63144B0022A9
:101184005A64134B00221A64114B002283F848203E
:101194000F233B600F237B60FF23BB600023FB60B6
:1011A4000F233B6110237B611123BB610023FB618F
:1011B4003B460022194606480AF05BF90346002B19
:1011C40001D000F039F900BF2037BD4680BD00BF13
:1011D400F8070020000002440401024480B58EB0E8
:1011E40000AF07F1240300221A605A609A60DA60A3
:1011F4001A61894BDB6C884A43F01003D364864B35
:10120400DB6C03F010033B623B6A834BDB6C824A6A
:1012140043F00203D364804BDB6C03F00203FB61F5
:10122400FB697D4BDB6C7C4A43F04003D3647A4B0F
:10123400DB6C03F04003BB61BB6905F0D5F8764B6A
:10124400DB6C754A43F00803D364734BDB6C03F027
:1012540008037B617B69704BDB6C6F4A43F00403CA
:10126400D3646D4BDB6C03F004033B613B696A4B55
:10127400DB6C694A43F00103D364674BDB6C03F016
:101284000103FB60FB68644BDB6C634A43F020039F
:10129400D364614BDB6C03F02003BB60BB685E4B23
:1012A400DB6C5D4A43F08003D3645B4BDB6C03F07F
:1012B40080037B607B68002241F20211574803F0EF
:1012C40059F800220821564803F054F8002220213E
:1012D400544803F04FF800224FF48071524803F051
:1012E40049F800220121514803F044F800224FF448
:1012F40058414F4803F03EF841F202137B62012348
:10130400BB620023FB6200233B6307F124031946FD
:10131400424802F097FE4FF400537B620023BB6205
:101324000023FB6207F124031946424802F08AFEB7
:1013340008237B620123BB620023FB6200233B631F
:1013440007F124031946364802F07CFE0E237B6223
:101354004FF48813BB620023FB6207F12403194690
:10136400334802F06FFE20237B620123BB6200231B
:10137400FB6200233B6307F124031946294802F06A
:1013840061FE4FF480737B620123BB620023FB6226
:1013940000233B6307F124031946234802F052FE5D
:1013A40001237B620123BB620023FB6200233B63B6
:1013B40007F1240319461D4802F044FE40237B62D2
:1013C4004FF48813BB620023FB6207F12403194620
:1013D400124802F037FE4FF458437B620123BB628C
:1013E4000023FB6200233B6307F1240319461048E2
:1013F40002F028FE4FF480437B620023BB6200238B
:10140400FB6207F124031946064802F01BFE00BFE5
:101414003837BD4680BD00BF0010024000180242AC
:10142400000C02420004024200000242001C02427C
:10143400001402420008024280B400AF72B600BF3A
:1014440000BFFDE780B483B000AF0F4B1B6E0E4AA4
:1014540043F0010313660C4B1B6E03F001037B6026
:101464007B68094B9B6D084A43F080539365064B98
:101474009B6D03F080533B603B6800BF0C37BD4657
:101484005DF8047B704700BF0010024080B58AB04D
:1014940000AF786007F1140300221A605A609A6062
:1014A400DA601A617B681B68154A934223D1154B95
:1014B400DB6C144A43F40053D364124BDB6C03F427
:1014C40000533B613B690F4BDB6C0E4A43F0010355
:1014D400D3640C4BDB6C03F00103FB60FB6810234B
:1014E4007B610323BB610023FB6107F114031946ED
:1014F400054802F0A7FD00BF2837BD4680BD00BFE8
:1015040000800242001002400000024280B485B014
:1015140000AF78607B681B680A4A93420BD10A4B80
:101524009B6C094A43F480539364074B9B6C03F40C
:101534008053FB60FB6800BF1437BD465DF8047B35
:10154400704700BF003002400010024080B5B0B0C8
:1015540000AF786007F1AC0300221A605A609A6009
:10156400DA601A6107F118039422002118461CF06E
:1015740001FF374B1B68002B65D14FF48033BB61EF
:101584000023C7F89C3007F11803184606F008F842
:101594000346002B01D0FFF74FFF2E4B1B6E2D4A45
:1015A40043F0807313662B4B1B6E03F080737B61D7
:1015B4007B69284BDB6C274A43F04003D364254BFB
:1015C400DB6C03F040033B613B6904F00DFF214BEE
:1015D400DB6C204A43F00203D3641E4BDB6C03F044
:1015E4000203FB60FB688023C7F8AC300223C7F812
:1015F400B0300023C7F8B4300023C7F8B83006234E
:10160400C7F8BC3007F1AC031946134802F01AFDC1
:101614004FF48053C7F8AC300223C7F8B03000232E
:10162400C7F8B4300023C7F8B8300623C7F8BC3075
:1016340007F1AC031946094802F004FD044B1B688A
:101644000133034A136000BFC037BD4680BD00BFED
:101654005008002000100240001802420004024218
:1016640080B5AEB000AF786007F1A40300221A6021
:101674005A609A60DA601A6107F11003942200211B
:1016840018461CF077FE7B681B68214A93423AD1C6
:1016940040233B610023FB6507F11003184605F066
:1016A4007FFF0346002B01D0FFF7C6FE194BDB6C0E
:1016B400184A43F00203D364164BDB6C03F00203B5
:1016C400FB60FB68C023C7F8A4301223C7F8A83016
:1016D4000123C7F8AC300023C7F8B0300423C7F89F
:1016E400B43007F1A40319460B4802F0ABFC094BD4
:1016F4009B6D084A43F400139365064B9B6D03F4FA
:101704000013BB60BB6800BFB837BD4680BD00BFD7
:1017140000540040001002400004024280B5B0B002
:1017240000AF786007F1AC0300221A605A609A6037
:10173400DA601A6107F118039422002118461CF09C
:1017440019FE7B681B68424A93423CD12023BB614B
:1017540000233B6607F11803184605F021FF0346F2
:10176400002B01D0FFF768FE3A4BDB6D394A43F09A
:101774000103D365374BDB6D03F001037B617B69A8
:10178400344BDB6C334A43F00203D364314BDB6CE0
:1017940003F002033B613B694FF44063C7F8AC308C
:1017A4000223C7F8B0300023C7F8B4300023C7F8C9
:1017B400B8300823C7F8BC3007F1AC0319462648F3
:1017C40002F040FC40E07B681B68244A93423BD112
:1017D4000123BB610023FB6407F11803184605F0DD
:1017E400DFFE0346002B01D0FFF726FE194B1B6ECC
:1017F400184A43F480431366164B1B6E03F480436C
:10180400FB60FB68134BDB6C124A43F00103D364A7
:10181400104BDB6C03F00103BB60BB684FF4C06387
:10182400C7F8AC300223C7F8B0300023C7F8B4308F
:101834000023C7F8B8300723C7F8BC3007F1AC035E
:101844001946074802F0FEFB00BFC037BD4680BD05
:1018540000800040001002400004024200380140B1
:101864000000024280B5B0B000AF786007F1AC036D
:1018740000221A605A609A60DA601A6107F118034C
:101884009422002118461CF075FD7B681B684E4AA3
:10189400934240F094804FF08073BB610023C7F8FB
:1018A400A43007F11803184605F07AFE0346002B0E
:1018B40001D0FFF7C1FD454B1B6D444A43F48073CF
:1018C4001365424B1B6D03F480737B617B693F4B53
:1018D400DB6C3E4A43F00403D3643C4BDB6C03F003
:1018E40004033B613B69394BDB6C384A43F0010329
:1018F400D364364BDB6C03F00103FB60FB68334BB2
:10190400DB6C324A43F00203D364304BDB6C03F0EC
:101914000203BB60BB680E23C7F8AC300223C7F8D0
:10192400B0300023C7F8B4300323C7F8B8300A2313
:10193400C7F8BC3007F1AC031946254802F082FB16
:101944000123C7F8AC300223C7F8B0300023C7F82E
:10195400B4300323C7F8B8300323C7F8BC3007F109
:10196400AC0319461A4802F06DFBCC23C7F8AC301F
:101974000223C7F8B0300023C7F8B4300323C7F8F4
:10198400B8300A23C7F8BC3007F1AC031946114834
:1019940002F058FB0723C7F8AC300223C7F8B03075
:1019A4000023C7F8B4300323C7F8B8300A23C7F8B4
:1019B400BC3007F1AC031946074802F043FB00BFF3
:1019C400C037BD4680BD00BF001002440010024075
:1019D40000080242000002420004024280B5B0B096
:1019E40000AF786007F1AC0300221A605A609A6075
:1019F400DA601A6107F118039422002118461CF0DA
:101A0400B9FC7B681B68334A93425FD14FF40023CF
:101A1400BB614FF04063C7F8903007F118031846D4
:101A240005F0BEFD0346002B01D0FFF705FD2A4B50
:101A3400DB6C294A43F48003D364274BDB6C03F447
:101A440080037B617B69244BDB6C234A43F00803EE
:101A5400D364214BDB6C03F008033B613B691E4BF1
:101A6400DB6C1D4A43F00403D3641B4BDB6C03F0B3
:101A74000403FB60FB680423C7F8AC300223C7F8F7
:101A8400B0300023C7F8B4300323C7F8B8300C23B0
:101A9400C7F8BC3007F1AC031946104802F0D2FA7B
:101AA4004FF4F853C7F8AC300223C7F8B030002322
:101AB400C7F8B4300323C7F8B8300C23C7F8BC30D8
:101AC40007F1AC031946064802F0BCFA00BFC03760
:101AD400BD4680BD00800C4200100240000C024252
:101AE4000008024280B58AB000AF786007F11403A1
:101AF40000221A605A609A60DA601A617B681B6877
:101B0400184A934229D1184B1B6E174A43F4805349
:101B14001366154B1B6E03F480533B613B69124BF8
:101B2400DB6C114A43F04003D3640F4BDB6C03F0CE
:101B34004003FB60FB6804F057FC3C237B610223F9
:101B4400BB610023FB6100233B6205237B6207F139
:101B540014031946054802F075FA00BF2837BD463C
:101B640080BD00BF00300140001002400018024256
:101B740080B487B000AF78607B681B681C4A9342CE
:101B84000CD11C4B9B6D1B4A43F004039365194B0A
:101B94009B6D03F004037B617B6922E07B681B6817
:101BA400154A93420CD1134B1B6E124A43F4003373
:101BB4001366104B1B6E03F400333B613B6910E06A
:101BC4007B681B680D4A93420BD10A4B1B6E094A72
:101BD40043F480231366074B1B6E03F48023FB60DE
:101BE400FB6800BF1C37BD465DF8047B704700BF2F
:101BF4000008004000100240004401400048014039
:101C040080B588B000AF786007F10C0300221A6039
:101C14005A609A60DA601A617B681B68114A9342C1
:101C24001BD1114BDB6C104A43F01003D3640E4BF1
:101C3400DB6C03F01003BB60BB680223FB60022370
:101C44003B6100237B610023BB610E23FB6107F131
:101C54000C031946054802F0F5F900BF2037BD46CC
:101C640080BD00BF00480140001002400010024245
:101C740080B586B000AF3B1D00221A605A609A609E
:101C8400DA601A61234B1B68002B3ED1214B0122E1
:101C94001A60214B1B6D204A43F0010313651E4B50
:101CA4001B6D03F001033B603B684CF2B3737B6034
:101CB4000223BB600023FB6003233B610C237B6195
:101CC4003B1D1946154802F0BDF901237B60022330
:101CD400BB600023FB6003233B610C237B613B1D42
:101CE40019460F4802F0AEF94FF680737B60022369
:101CF400BB600023FB6003233B610C237B613B1D22
:101D04001946084802F09EF900E000BF1837BD46A6
:101D140080BD00BF5408002000100240000C0242A5
:101D2400001402420010024280B582B000AF786015
:101D3400FFF79EFF00BF0837BD4680BD80B58AB05F
:101D440000AF78607B681B682A4A934224D12A4BEF
:101D54001B68002B0BD1294B1B6E284A43F400133C
:101D64001366264B1B6E03F400133B613B69224B45
:101D74001B680133204A136074237B610223BB6117
:101D84000023FB6100233B620D237B6207F11403F4
:101D940019461B4802F056F97B681B68194A93429E
:101DA40024D1154B1B68002B0BD1144B1B6E134A0B
:101DB40043F400131366114B1B6E03F40013FB6012
:101DC400FB680D4B1B6801330B4A136008237B61CE
:101DD4000223BB610023FB6100233B620D237B6272
:101DE40007F114031946064802F02CF900BF2837FE
:101DF400BD4680BD04540140580800200010024034
:101E0400001002422454014080B400AF00BFFDE73B
:101E140080B400AF00BFFDE780B400AF00BFFDE7B2
:101E240080B400AF00BFFDE780B400AF00BFFDE7A2
:101E340080B400AF00BFBD465DF8047B704780B43A
:101E440000AF00BFBD465DF8047B704780B400AFAF
:101E540000BFBD465DF8047B704780B500AF00F05D
:101E640023FE00BF80BD000080B500AF024802F031
:101E7400EAFD00BF80BD00BF6C19002080B500AF33
:101E8400024808F063F800BF80BD00BF340600209C
:101E940080B400AF01231846BD465DF8047B70474B
:101EA40080B582B000AF786039601DF069FB0346ED
:101EB40016221A604FF0FF3318460837BD4680BD1E
:101EC40080B582B000AF78604FF0FF317868FFF7DB
:101ED400E7FF00BFFDE780B586B000AFF860B960EA
:101EE4007A6000237B610AE0AFF300800146BB689F
:101EF4005A1CBA60CAB21A707B6901337B617A6971
:101F04007B689A42F0DB7B6818461837BD4680BD73
:101F140080B586B000AFF860B9607A6000237B6159
:101F240009E0BB685A1CBA601B781846AFF30080FE
:101F34007B6901337B617A697B689A42F1DB7B6858
:101F440018461837BD4680BD80B483B000AF7860B2
:101F54004FF0FF3318460C37BD465DF8047B7047DD
:101F640080B483B000AF786039603B684FF40052AE
:101F74005A60002318460C37BD465DF8047B704751
:101F840080B483B000AF7860012318460C37BD4697
:101F94005DF8047B704780B485B000AFF860B96029
:101FA4007A60002318461437BD465DF8047B7047F9
:101FB40080B586B000AF7860144A154BD31A7B61A4
:101FC4007B693B61134B1B68002B02D1114B124AF6
:101FD4001A60104B1A687B6813443A699A4207D214
:101FE4001DF0CEFA03460C221A604FF0FF3309E0CD
:101FF400084B1B68FB60074B1A687B681344054A4F
:102004001360FB6818461837BD4680BD00000320E6
:1020140000040000600800204820002080B400AFC5
:10202400064BD3F88830054A43F47003C2F888306D
:1020340000BFBD465DF8047B704700BF00ED00E0C3
:1020440080B487B000AF4F4B1B6803F00803002B2C
:1020540007D14C4BD3F894301B0A03F00F037B6178
:1020640005E0484B1B681B0903F00F037B61464ADC
:102074007B6952F823307B61424B9B6803F00C036D
:102084000C2B66D801A252F823F000BFC52000082B
:10209400572100085721000857210008CD200008C7
:1020A400572100085721000857210008D5200008AF
:1020B400572100085721000857210008DD20000897
:1020C400324A7B69136048E0304B314A1A6044E07D
:1020D4002E4B304A1A6040E02A4BDB6803F00303BE
:1020E400FB60284BDB681B0903F00F030133BB6063
:1020F400FB68022B03D0FB68032B06D00BE0244AB9
:10210400BB68B2FBF3F33B610BE0224ABB68B2FB52
:10211400F3F33B6105E07A69BB68B2FBF3F33B611F
:1021240000BF184BDB681B0A03F07F023B6902FB0C
:1021340003F33B61134BDB685B0E03F003030133D2
:102144005B007B603A697B68B2FBF3F30F4A136070
:1021540003E00E4A7B69136000BF0A4B9B681B09AE
:1021640003F00F030C4AD35C3B60084B1A683B68CE
:1021740022FA03F3054A136000BF1C37BD465DF81D
:10218400047B704700100240EC0E0208040000209B
:102194000024F40000127A00D40E020880B400AFC8
:1021A400BFF34F8F00BF064BDB6803F4E0620449C2
:1021B400044B1343CB60BFF34F8F00BF00BFFDE759
:1021C40000ED00E00400FA0580B584B000AF0346DA
:1021D400FB710023FB6039E02749FA6813465B0072
:1021E4001344DB000B44153393F900301A46FB68A3
:1021F40001339A4227D12049FA6813465B001344FD
:10220400DB000B4414331B7823F08003022B1AD118
:102214001949FA6813465B001344DB000B4404338A
:102224001B685B78FA799A420DD1F9791248FA68F9
:1022340013465B001344DB00034408331B680F4A56
:1022440042F8213005E0FB680133FB60FB68012B99
:10225400C2D9FB79094A52F82330002B07D0FB7905
:10226400064A52F823301B689847034600E00123CE
:1022740018461037BD4680BD08000020000F00201E
:1022840080B582B000AF0346FB71FB79044A52F873
:1022940023305B689847034618460837BD4680BD1F
:1022A400000F002080B586B000AFB9607A603B6053
:1022B4000346FB73FB7B074A52F823309B683A685A
:1022C4007968B86898470346FB75FB7D184618374C
:1022D400BD4680BD000F002080B586B000AFB96058
:1022E4007A603B600346FB73FB7B074A52F823305A
:1022F400DB683A687968B86898470346FB75FB7DE4
:1023040018461837BD4680BD000F002080B582B046
:1023140000AF03463A60FB710B46BB71FB79064A7A
:1023240052F823301B69BA79396810469847034636
:1023340018460837BD4680BD000F00202DE9B04384
:10234400A6B000AF78600B46FB70654B3B67FB782B
:10235400002B40F0A5807B681B6807F1080211463A
:1023640018461AF0A7FA03465B42C7F88430D7F838
:102374008430002B40F09080BB6EFA6E02FB03F3B6
:10238400002298469146C7E91E89D7E91E014FF0FD
:1023940000024FF00003820A42EA81528B0A13467C
:1023A400C7F89430002387F89330D7E91223D7E98C
:1023B4001E01841A61EB03054FF000024FF0000385
:1023C400A20A42EA8552AB0A1346C7F88C300023AE
:1023D40087F88B3009E097F89330013387F893300E
:1023E400D7F894309B0AC7F8943097F89330022BAF
:1023F4000FD8D7F89430B3F5105FECD809E097F80C
:102404008B30013387F88B30D7F88C309B0AC7F8B0
:102414008C3097F88B30022B04D8D7F88C30B3F576
:10242400105FECD834201BF0F9FB03467B677B6F0D
:10243400002B4FD07B681B681946786F1AF00EF892
:102444000346002B24D117E0D7E91223511C0B4378
:1024540012D13B7AFF2B0FD17B7AFF2B0CD1BB7AA5
:10246400FF2B09D1FB7AFF2B06D13B7BFF2B03D13A
:102474005823C7F8843008E007F108031946786F39
:102484001AF062F80346002BDED0786F1AF03AF89F
:10249400786F1BF0CBFB1DE05823C7F8843019E09C
:1024A400FB78012B16D0FB78022B13D17B681B7DA4
:1024B4005BB2002B0EDA7B681B6818461AF04AFEE2
:1024C40003465B42C7F88430D7F88430002B01D12F
:1024D400FFF764FE00BF9837BD46BDE8B08300BF78
:1024E4006B4D4754DFF834D0FFF798FD002103E02B
:1024F4000B4B5B58435004310A480B4B42189A4229
:10250400F6D30A4A02E0002342F8043B084B9A42FD
:10251400F9D31DF03BF8FEF7A9F8FEE7000003200D
:10252400B021020800000020E0010020E0010020AA
:1025340048200020FEE7000080B58AB000AF786034
:1025440000237B6207F1100300221A605A609A602C
:10255400DA601A617B68002B03D06FF001037B62A1
:1025640045E0254BDB6C244A43F02003D364224B23
:10257400DB6C03F02003FB60FB684FF444137B61C6
:102584000123BB610323FB611C4A7B6852F823309F
:102594003B611B4A7B6852F8233007F11002114655
:1025A400184601F04FFD786800F058F80346012BF7
:1025B40003D06FF006037B6219E07A6813465B016F
:1025C4009B1A9B000F4A1344184600F035F97A68A9
:1025D40013465B019B1A9B000A4A1344184600F0F9
:1025E40013F80346002B02D06FF003037B627B6A6F
:1025F40018462837BD4680BD001002403800002030
:102604003C0000200C0F002080B584B000AF78603F
:102614000023FB737B68104A1A607B684FF4803296
:102624005A607B6800229A607B684FF48042DA60CB
:102634007B684FF400321A617B6803225A61786820
:1026440007F054F80346002B01D00123FB73FB7BF6
:1026540018461037BD4680BD00800C4280B584B05A
:1026640000AF78607B68002B03D06FF00103FB6040
:1026740014E00D4A7B6852F823200C497B6851F81A
:1026840023309BB21946104601F05CFE0346002B32
:1026940002D00023FB6001E00123FB60FB681846C5
:1026A4001037BD4680BD00BF3C000020380000202C
:1026B40080B588B002AFF860B9607A603B603B686F
:1026C400642202FB03F33B61FB68002B03D06FF031
:1026D40001037B6116E0FA6813465B019B1A9B00B9
:1026E4000B4A98183B6900933B687A68B96807F00D
:1026F40015F90346002B03D06FF003037B6101E05F
:1027040000237B617B6918461837BD4680BD00BF36
:102714000C0F002080B588B002AFF860B9607A6011
:102724003B603B68FA2202FB03F33B61FB68002B2E
:1027340003D06FF001037B6116E0FA6813465B0176
:102744009B1A9B000B4A98183B6900933B687A6874
:10275400B96807F06DFA0346002B03D06FF003034A
:102764007B6101E000237B617B6918461837BD4615
:1027740080BD00BF0C0F002080B584B000AF78602E
:102784007B68002B03D06FF00103FB6010E07A68D4
:1027940013465B019B1A9B00084A1344184608F031
:1027A40033F90346042B14BF01230023DBB2FB607F
:1027B400FB6818461037BD4680BD00BF0C0F0020D3
:1027C40080B584B000AF786039607B68002B03D09B
:1027D4006FF00103FB6013E07A6813465B019B1AF8
:1027E4009B000A4A13443968184607F0D1FF034690
:1027F400002B03D06FF00303FB6001E00023FB60B8
:10280400FB6818461037BD4680BD00BF0C0F002082
:1028140080B483B000AF786000BF0C37BD465DF86C
:10282400047B704780B483B000AF786000BF0C377E
:10283400BD465DF8047B704780B5C2B000AF07F5B4
:102844008473A3F582731860002387F8073107F1B6
:10285400F00300221A605A609A60DA601A6107F184
:10286400A803184604F0DCFCD7F8D030012B10D0B4
:102874002023C7F8A8300123C7F8D0300023C7F8B5
:10288400D43007F1A803184603F0E2FD034687F8A5
:10289400073197F80731002B64D14FF400237B6193
:1028A4000023C7F88C3007F11403184604F078FEAF
:1028B400034687F8073197F80731002B52D12C4B88
:1028C400DB6C2B4A43F48003D364294BDB6C03F4A5
:1028D40080033B613B69264BDB6C254A43F00403D0
:1028E400D364234BDB6C03F00403FB60FB68204BD5
:1028F400DB6C1F4A43F00803D3641D4BDB6C03F00D
:10290400080207F58473A3F580731A6007F58473CE
:10291400A3F580731B680223C7F8F4300123C7F8BA
:10292400F8300323C7F8FC300C23C7F800314FF408
:10293400F853C7F8F03007F1F00319460D4801F0D9
:1029440081FB0423C7F8F03007F1F00319460A4865
:1029540001F078FB002207214E2001F064F94E209B
:1029640001F07BF900BF07F58477BD4680BD00BF49
:102974000010024000080242000C024280B584B0FC
:1029840000AF78600023FB60FA6813465B019B1A72
:102994009B00094A13447A689A4202D1F868FFF707
:1029A40037FFFB680133FB60FB68002BECD000BFF2
:1029B40000BF1037BD4680BD0C0F002080B584B029
:1029C40000AF78600023FB60FA6813465B019B1A32
:1029D4009B00094A13447A689A4202D1F868FFF7C7
:1029E40021FFFB680133FB60FB68002BECD000BFC8
:1029F40000BF1037BD4680BD0C0F002080B582B0EB
:102A040000AF0023FB71002001F002F9FFF718FB6F
:102A1400002000F00DF80346002B02D00123FB71C7
:102A240001E0FEF70FFDFB7918460837BD4680BD6F
:102A340080B584B000AF78600023FB73174B1B781C
:102A4400002B23D0164B1A68144B1B7819464FF4ED
:102A54007A73B3FBF1F3B2FBF3F3184601F00BF90D
:102A64000346002B0FD17B68072B09D80022796815
:102A74004FF0FF3001F0D7F80A4A7B68136007E093
:102A84000123FB7304E00123FB7301E00123FB73C7
:102A9400FB7B18461037BD4680BD00BF44000020B4
:102AA400040000204000002080B400AF064B1B78D7
:102AB4001A46064B1B681344044A136000BFBD4604
:102AC4005DF8047B704700BF44000020880F00209D
:102AD40080B400AF034B1B681846BD465DF8047B09
:102AE400704700BF880F002080B584B000AF7860C5
:102AF400FFF7EEFFB8607B68FB60FB68B3F1FF3F54
:102B040005D00A4B1B781A46FB681344FB6000BFD0
:102B1400FFF7DEFF0246BB68D31AFA689A42F7D879
:102B240000BF00BF1037BD4680BD00BF4400002079
:102B340080B483B000AF786039607B689B6823F40D
:102B44007C123B681A437B689A6000BF0C37BD4611
:102B54005DF8047B704780B483B000AF786039605F
:102B64007B689B6823F0E0723B681A437B689A6039
:102B740000BF0C37BD465DF8047B704780B483B05A
:102B840000AF78607B689B6803F0E07318460C37ED
:102B9400BD465DF8047B704780B487B000AFF86031
:102BA400B9607A603B60FB6860331A46BB689B007F
:102BB40013447B617B691A68084B13407A6802F0FE
:102BC400F8413A680A43134343F000427B691A60B0
:102BD40000BF1C37BD465DF8047B704700F0FF035F
:102BE40080B485B000AF786039607B6860331A4682
:102BF4003B689B001344FB60FB681B6803F0F843CD
:102C040018461437BD465DF8047B704780B487B01E
:102C140000AFF860B9607A60FB6860331A46BB683D
:102C24009B0013447B617B691B6823F000427B6833
:102C34001A437B691A6000BF1C37BD465DF8047BEC
:102C4400704780B483B000AF786039607B685B699B
:102C540023F000423B681A437B685A6100BF0C377B
:102C6400BD465DF8047B704780B487B000AFF86060
:102C7400B9607A60FB6830331A46BB681B0A9B0054
:102C840003F00C0313447B617B691A68BB6803F08F
:102C94001F031F2101FA03F3DB431A407B689B0ED9
:102CA40003F01F01BB6803F01F0301FA03F31A4387
:102CB4007B691A6000BF1C37BD465DF8047B704712
:102CC40080B487B000AFF860B9607A60FB681433F1
:102CD4001A46BB685B0E9B0003F0040313447B613C
:102CE4007B691A68BB681B0D03F01F03072101FAF7
:102CF40003F3DB431A40BB681B0D03F01F03796821
:102D040001FA03F31A437B691A6000BF1C37BD46FE
:102D14005DF8047B7047000080B485B000AFF860B4
:102D2400B9607A60FB68D3F8B020BB68C3F31203C0
:102D3400DB431A407B6803F018030849D940BB6899
:102D44000B40C3F312031A43FB68C3F8B02000BF5F
:102D54001437BD465DF8047B704700BFFFFF0700D2
:102D640080B483B000AF78607B689B6823F0204315
:102D740023F03F037A68936000BF0C37BD465DF8CB
:102D8400047B704780B483B000AF78607B689B6835
:102D940003F00053B3F1005F01D1012300E00023ED
:102DA40018460C37BD465DF8047B704780B483B089
:102DB40000AF78607B689B6823F0104323F03F03E7
:102DC40043F080527B689A6000BF0C37BD465DF8C3
:102DD400047B704780B483B000AF78607B689B68E5
:102DE40003F08053B3F1805F01D1012300E000239D
:102DF40018460C37BD465DF8047B704780B483B039
:102E040000AF78607B689B6803F00103012B01D15C
:102E1400012300E0002318460C37BD465DF8047B0F
:102E2400704780B483B000AF78607B689B6803F020
:102E34000403042B01D1012300E0002318460C37BE
:102E4400BD465DF8047B704780B483B000AF786002
:102E54007B689B6803F00803082B01D1012300E081
:102E6400002318460C37BD465DF8047B704700000C
:102E740090B589B000AF78600023FB770023FB6036
:102E84007B68002B01D101232EE17B681B69002B99
:102E94007B689B6D002B09D17868FEF7F7FA7B6895
:102EA4000022DA657B68002283F854207B681B6863
:102EB4001846FFF767FF0346002B04D07B681B68A6
:102EC4001846FFF74DFF7B681B681846FFF782FF23
:102ED4000346002B15D17B681B681846FFF766FF75
:102EE400834B1B689B09834AA2FB03239B09013381
:102EF4005B00FB6002E0FB68013BFB60FB68002BAE
:102F0400F9D17B681B681846FFF764FF0346002B62
:102F14000DD17B689B6D43F010027B689A657B68DA
:102F2400DB6D43F001027B68DA650123FB777B6884
:102F34001B681846FFF775FF78617B689B6D03F08B
:102F44001003002B40F0C7807B69002B40F0C38046
:102F54007B689B6D23F4817343F002027B689A655E
:102F64007B681B681846FFF749FF0346002B10D106
:102F74006148FFF743FF04466048FFF73FFF0346FD
:102F84002343002B05D17B685B6819465C48FFF737
:102F9400CFFD7B685B7E5A037B685B6B1A437B685F
:102FA400DB681A437B689B681A437B6893F820307C
:102FB4001B041343BB617B6893F82030012B06D1BB
:102FC4007B685B6A013B5B04BA691343BB617B6842
:102FD4009B6A002B09D07B689B6A03F470727B6840
:102FE400DB6A1343BA691343BB617B681B68DA6805
:102FF400444B13407A681268B9690B43D3607B6809
:103004001B681846FFF720FF38617B69002B40D10D
:103014003B69002B3DD17B68DA6C7B681B7E9B038C
:103024001A437B6893F830305B001343BB617B68C1
:103034001B68DB6823F4804323F006037A68126874
:10304400B9690B43D3607B6893F83830012B18D1EE
:103054007B681B681B6923F4FF6323F004037A680D
:10306400D16B7A68126C11437A68526C11437A6896
:10307400926C0A431A437B681B6842F001021A618E
:1030840007E07B681B681A697B681B6822F00102F1
:103094001A617B681B69012B0CD17B681B681B6B55
:1030A40023F00F017B68DB695A1E7B681B680A43A7
:1030B4001A6307E07B681B681A6B7B681B6822F045
:1030C4000F021A637B689B6D23F0030343F0010234
:1030D4007B689A6507E07B689B6D43F010027B6810
:1030E4009A650123FB77FB7F18462437BD4690BDC4
:1030F40004000020632D3E0500800242008102424C
:103104000083024207C0F0FF90B5B7B000AF78600B
:103114003960002387F8D7300023FB607B6893F87D
:103124005430012B01D10223C1E37B68012283F8CF
:1031340054207B681B681846FFF773FE0346002B78
:1031440040F0A6837B6818683B6859683B681B6835
:103154001A46FFF789FD7B681B681846FFF761FE76
:10316400C7F8D0007B681B681846FFF76DFEC7F8E8
:10317400CC00D7F8D030002B40F0C181D7F8CC3048
:10318400002B40F0BC813B689B68B3F1004F0FD12A
:103194007B6818683B681B6800221946FFF790FD9E
:1031A4007B681B684FF000411846FFF74AFD0EE0AC
:1031B4007B6818683B6819683B689B681A46FFF788
:1031C4007FFD7B681B6800211846FFF73AFD3B68CA
:1031D4005A697B681B68DB68DB0803F003035B0048
:1031E40002FA03F3C7F8C8303B681B69042B0AD002
:1031F4007B6818683B6819693B681A68D7F8C83057
:10320400FFF7CAFC7BE17B681B6800211846FFF7C7
:10321400E7FC0346C3F31203002B0AD17B681B6847
:1032240000211846FFF7DCFC03469B0E03F01F0247
:103234001EE07B681B6800211846FFF7D1FC03469B
:10324400C7F8BC30D7F8BC3093FAA3F3C7F8B8304A
:10325400D7F8B830C7F8C030D7F8C030002B01D148
:10326400202304E0D7F8C030B3FA83F3DBB21A4664
:103274003B681B68C3F31203002B05D13B681B6832
:103284009B0E03F01F0318E03B681B68C7F8B030BF
:10329400D7F8B03093FAA3F3C7F8AC30D7F8AC3012
:1032A400C7F8B430D7F8B430002B01D1202304E0A0
:1032B400D7F8B430B3FA83F3DBB29A4206D17B6811
:1032C4001B68002200211846FFF7A0FC7B681B68DE
:1032D40001211846FFF784FC0346C3F31203002BB5
:1032E4000AD17B681B6801211846FFF779FC034665
:1032F4009B0E03F01F021EE07B681B680121184629
:10330400FFF76EFC0346C7F8A430D7F8A43093FA4D
:10331400A3F3C7F8A030D7F8A030C7F8A830D7F87F
:10332400A830002B01D1202304E0D7F8A830B3FA49
:1033340083F3DBB21A463B681B68C3F31203002B0A
:1033440005D13B681B689B0E03F01F0318E03B6824
:103354001B68C7F89830D7F8983093FAA3F3C7F8E6
:103364009430D7F89430C7F89C30D7F89C30002BB1
:1033740001D1202304E0D7F89C30B3FA83F3DBB205
:103384009A4206D17B681B68002201211846FFF788
:103394003DFC7B681B6802211846FFF721FC0346AD
:1033A400C3F31203002B0AD17B681B680221184661
:1033B400FFF716FC03469B0E03F01F021EE07B681A
:1033C4001B6802211846FFF70BFC0346C7F88C3034
:1033D400D7F88C3093FAA3F3C7F88830D7F888303D
:1033E400C7F89030D7F89030002B01D1202304E0A7
:1033F400D7F89030B3FA83F3DBB21A463B681B6804
:10340400C3F31203002B05D13B681B689B0E03F02A
:103414001F0316E03B681B68C7F88030D7F880307C
:1034240093FAA3F3FB67FB6FC7F88430D7F88430B3
:10343400002B01D1202304E0D7F88430B3FA83F3BE
:10344400DBB29A4206D17B681B680022022118462F
:10345400FFF7DCFB7B681B6803211846FFF7C0FB02
:103464000346C3F31203002B0AD17B681B680321B4
:103474001846FFF7B5FB03469B0E03F01F0217E047
:103484007B681B6803211846FFF7AAFB03467B678A
:103494007B6F93FAA3F33B673B6FBB67BB6F002B58
:1034A40001D1202303E0BB6FB3FA83F3DBB21A46E6
:1034B4003B681B68C3F31203002B05D13B681B68F0
:1034C4009B0E03F01F0311E03B681B68BB66BB6ED9
:1034D40093FAA3F37B667B6EFB66FB6E002B01D134
:1034E400202303E0FB6EB3FA83F3DBB29A4206D1E6
:1034F4007B681B68002203211846FFF787FB7B6863
:103504001B681846FFF77AFC0346002B40F0C9817C
:103514007B6818683B6819683B68DB681A46FFF7E4
:10352400FBFB3B68DB688F4A934240F031817B6848
:1035340018683B681B68C3F31203002B0BD13B686C
:103544001B689B0E013303F01F03092B94BF012357
:103554000023DBB219E03B681B68FB65FB6D93FA43
:10356400A3F3BB65BB6D3B663B6E002B01D12023EF
:1035740003E03B6EB3FA83F3DBB2013303F01F03C2
:10358400092B94BF01230023DBB2002B79D03B68C5
:103594001B68C3F31203002B07D13B681B689B0E07
:1035A40001339B0603F0F84215E03B681B683B655A
:1035B4003B6D93FAA3F3FB64FB6C7B657B6D002B83
:1035C40001D1202303E07B6DB3FA83F3DBB2013333
:1035D4009B0603F0F8423B681B68C3F31203002BFD
:1035E40009D13B681B689B0E013303F01F030121C3
:1035F40001FA03F317E03B681B687B647B6C93FA66
:10360400A3F33B643B6CBB64BB6C002B01D1202354
:1036140003E0BB6CB3FA83F3DBB2013303F01F03A3
:10362400012101FA03F342EA03013B681B68C3F377
:103634001203002B0AD13B681B689B0E013303F075
:103644001F0213465B0013441B0518E03B681B680C
:10365400BB63BB6B93FAA3F37B637B6BFB63FB6B77
:10366400002B01D1202303E0FB6BB3FA83F3DBB21D
:10367400013303F01F0213465B0013441B050B4385
:1036840081E03B681B68C3F31203002B07D13B683E
:103694001B689B0E01339B0603F0F84215E03B6860
:1036A4001B68FB62FB6A93FAA3F3BB62BB6A3B63CE
:1036B4003B6B002B01D1202303E03B6BB3FA83F374
:1036C400DBB201339B0603F0F8423B681B68C3F38B
:1036D4001203002B09D13B681B689B0E013303F0D6
:1036E4001F03012101FA03F317E03B681B683B62E7
:1036F4003B6A93FAA3F3FB61FB697B627B6A002B51
:1037040001D1202303E07B6AB3FA83F3DBB20133F4
:1037140003F01F03012101FA03F342EA03013B68AA
:103724001B68C3F31203002B0DD13B681B689B0E6F
:10373400013303F01F0213465B0013441E3B1B05B9
:1037440043F000731EE03B681B687B617B6993FA5E
:10375400A3F33B613B69BB61BB69002B04D120230C
:1037640006E000BF00007F40BB69B3FA83F3DBB21D
:10377400013303F01F0213465B0013441E3B1B0579
:1037840043F000730B433A6892681946FFF798FABE
:103794003B681A68484B1340002B00F0828047486E
:1037A400FFF7ECF9C7F8C4004548FFF727FB0446C8
:1037B4004448FFF723FB03462343002B5ED13B68B9
:1037C4001B68414A934227D1D7F8C43003F400035D
:1037D400002B21D17B681B68394A934261D1D7F809
:1037E400C43043F4000319463448FFF7B4F9374BA7
:1037F4001B689B09364AA2FB03239B095A1C1346E8
:103804005B0013449B00FB6002E0FB68013BFB6030
:10381400FB68002BF9D144E03B681B682D4A9342B6
:1038240013D1D7F8C43003F08073002B0DD17B681B
:103834001B68234A934234D1D7F8C43043F08073D1
:1038440019461E48FFF787F92BE03B681B68224A9C
:10385400934226D1D7F8C43003F48003002B20D13F
:103864007B681B68164A93421BD1D7F8C43043F4D3
:10387400800319461148FFF76EF912E07B689B6DCF
:1038840043F020027B689A65012387F8D73008E06B
:103894007B689B6D43F020027B689A65012387F85F
:1038A400D7307B68002283F8542097F8D730184625
:1038B400DC37BD4690BD00BF000008800083024293
:1038C4000080024200810242000052C7040000202E
:1038D400632D3E05000084CB0100008080B483B0DA
:1038E40000AF78607B689B6803F00103012B01D172
:1038F400012300E0002318460C37BD465DF8047B25
:10390400704780B483B000AF78607B689B6803F035
:103914000403042B01D1012300E0002318460C37D3
:10392400BD465DF8047B704790B5A1B000AF7860E8
:103934003960002387F87F307B6893F85430012B7B
:1039440001D1022389E07B68012283F854200023FB
:103954007B660023BB667B681B68424A934202D1A4
:10396400414BFB6001E00023FB60FB68002B0BD1A3
:103974007B689B6D43F020027B689A657B6800221C
:1039840083F85420012368E0FB681846FFF7B9FF69
:10399400B8677B681B681846FFF7B3FF0346002B24
:1039A4004AD1BB6F002B47D1304B7B673B681B6808
:1039B400002B27D07B6F9B6823F460423B685968D7
:1039C4007B6893F830305B030B431A437B6F9A6038
:1039D4002448FFF783FF04462348FFF77FFF03468D
:1039E4002343002B32D17B6F9B6823F4716323F054
:1039F4000F033A6811683A6892680A431A437B6F66
:103A04009A6023E07B6F9B6823F460427B6F9A602B
:103A14001448FFF763FF04461348FFF75FFF0346AC
:103A24002343002B12D17B6F9B6823F4716323F033
:103A34000F037A6F936009E07B689B6D43F020026B
:103A44007B689A65012387F87F3000E000BF7B68BC
:103A5400002283F8542097F87F3018468437BD46F7
:103A640090BD00BF008002420081024200830242F6
:103A740080B485B000AF78607B6803F00703FB6017
:103A84000C4BDB68BB60BA684FF6FF031340BB60A6
:103A9400FB681A02BB68134343F0BF6343F400336B
:103AA400BB60044ABB68D36000BF1437BD465DF8F1
:103AB400047B704700ED00E080B400AF044BDB688A
:103AC4001B0A03F007031846BD465DF8047B7047E4
:103AD40000ED00E080B483B000AF0346FB7197F9BA
:103AE4000730002B0BDBFB7903F01F02074997F922
:103AF40007305B09012000FA02F241F8232000BFDD
:103B04000C37BD465DF8047B704700BF00E100E060
:103B140080B483B000AF03463960FB7197F9073076
:103B2400002B0ADB3B68DAB20C4997F907305201E3
:103B3400D2B20B4483F800230AE03B68DAB20849A6
:103B4400FB7903F00F03043B5201D2B20B441A7603
:103B540000BF0C37BD465DF8047B704700E100E010
:103B640000ED00E080B489B000AFF860B9607A601D
:103B7400FB6803F00703FB61FB69C3F10703032B35
:103B840028BF0323BB61FB690333062B02D9FB69FE
:103B9400043B00E000237B614FF0FF32BB6902FA73
:103BA40003F3DA43BB681A407B699A404FF0FF3154
:103BB4007B6901FA03F3D9437B680B40134318462E
:103BC4002437BD465DF8047B7047000080B582B0A1
:103BD40000AF78607B68013BB3F1807F01D30123A0
:103BE4000FE00A4A7B68013B536007214FF0FF3026
:103BF400FFF78EFF054B00229A60044B07221A60E0
:103C0400002318460837BD4680BD00BF10E000E021
:103C140080B582B000AF78607868FFF729FF00BFF5
:103C24000837BD4680BD80B586B000AF0346B96095
:103C34007A60FB73FFF740FF78617A68B968786946
:103C4400FFF790FF024697F90F3011461846FFF729
:103C54005FFF00BF1837BD4680BD80B582B000AF9E
:103C64000346FB7197F907301846FFF733FF00BF8F
:103C74000837BD4680BD80B582B000AF78607868F3
:103C8400FFF7A4FF034618460837BD4680BD000071
:103C940080B582B000AF78607B68002B01D101232E
:103CA40054E07B685B7FDBB2002B05D17B6800228C
:103CB4001A777868FDF72AFC7B6802225A777B68BA
:103CC4001B79002B0CD17B681B68224A5A617B68E4
:103CD4001B689A687B681B6822F018029A600CE0E3
:103CE4007B6899687B68DB681A46786800F034F86A
:103CF4000346002B01D0012328E07B685B79002B6D
:103D040005D17B681B684FF0FF321A6104E07B68C1
:103D14001B687A6812691A617B681B689B6823F0C8
:103D240060017B685A697B681B680A439A607B68F8
:103D34001B689B6823F080017B689A697B681B6819
:103D44000A439A607B6801225A7700231846083791
:103D5400BD4680BDB71DC10480B487B000AFF86014
:103D6400B9607A600023FB751F233B61BB6803F0D5
:103D74000103002B02D10123FB7563E000BF3B6903
:103D84005A1E3A61002B09D03B6903F01F03BA683D
:103D940022FA03F303F00103002BF0D07B68182B05
:103DA40046D801A252F823F03B3E0008353E0008F5
:103DB400353E0008353E0008353E0008353E000813
:103DC400353E0008353E0008293E0008353E00080F
:103DD400353E0008353E0008353E0008353E0008F3
:103DE400353E0008353E00081D3E0008353E0008FB
:103DF400353E0008353E0008353E0008353E0008D3
:103E0400353E0008353E0008113E00083B69062B8C
:103E140013D90123FB7510E03B69072B0FD901234C
:103E2400FB750CE03B690F2B0BD90123FB7508E0F4
:103E34000123FB7506E000BF04E000BF02E000BF01
:103E440000E000BFFB7D002B0DD1FB681B68BA6846
:103E54005A61FB681B689B6823F01801FB681B68A8
:103E64007A680A439A60FB7D18461C37BD465DF8A4
:103E7400047B704780B582B000AF78607B68002B0C
:103E840001D10123ACE07B681B68184600F0B2F84E
:103E94000346554A52F82330002B01D001239FE0FA
:103EA4007868FDF753FB514B1B6801334F4A13608D
:103EB4004E4B1B68012B25D14D4B1B684C4A23F0FC
:103EC400804313604A4B1A687B689B6848491343D4
:103ED4000B60474B1B68464A23F47F0313607B68DF
:103EE4001B79012B08D1424B1A687B68DB68013BC4
:103EF4001B043F4913430B603D4B1B683C4A43F092
:103F0400004313607B681B681A687B681B6822F493
:103F140071421A607B681B6819687B681A697B6840
:103F24005B691A437B689B691A437B681B680A4375
:103F34001A607B681B681A687B681B6822F00F0292
:103F44001A607B681B6819687B68DA697B681B6A7E
:103F54001A437B681B680A431A607B681B689A686B
:103F64007B681B6822F45F029A607B681B6899680F
:103F74007B685A6A7B689B6A013B1B041A437B6813
:103F84001B680A439A607B681B685A687B681B68D5
:103F940002F007025A607B681B6859687B68DB6A19
:103FA4001A027B681B6BDB001A437B681B680A439D
:103FB4005A607B681B681A687B681B6842F0800241
:103FC4001A607B68012283F834207B681B681846DA
:103FD40000F010F8024604497B6841F822300023BF
:103FE40018460837BD4680BD900F00208C0F002076
:103FF4000060014080B485B000AF78607B680E4AF1
:10400400934202D10023FB600FE07B680B4A93428A
:1040140002D10123FB6008E07B68094A934202D184
:104024000223FB6001E00323FB60FB68184614379E
:10403400BD465DF8047B704700600140206001408C
:104044004060014080B487B000AF786039600023DD
:104054007B6158E13B681A6801217B6901FA03F32B
:104064001340FB60FB68002B00F04A813B685B68EF
:1040740003F00303012B05D03B685B6803F00303E3
:10408400022B30D17B689B683B617B695B00032218
:1040940002FA03F3DB433A6913403B613B68DA6895
:1040A4007B695B0002FA03F33A6913433B617B6863
:1040B4003A699A607B685B683B6101227B6902FA1A
:1040C40003F3DB433A6913403B613B685B681B09BC
:1040D40003F001027B6902FA03F33A6913433B617B
:1040E4007B683A695A603B685B6803F00303032BFF
:1040F40017D07B68DB683B617B695B00032202FAB3
:1041040003F3DB433A6913403B613B689A687B697C
:104114005B0002FA03F33A6913433B617B683A6933
:10412400DA603B685B6803F00303022B23D17B69ED
:10413400DA087B68083253F822303B617B6903F06C
:1041440007039B000F2202FA03F3DB433A6913408F
:104154003B613B681A697B6903F007039B0002FA21
:1041640003F33A6913433B617B69DA087B680832DD
:10417400396943F822107B681B683B617B695B00EB
:10418400032202FA03F3DB433A6913403B613B68C1
:104194005B6803F003027B695B0002FA03F33A698C
:1041A40013433B617B683A691A603B685B6803F4BC
:1041B4004033002B00F0A4805A4A7B699B081833D3
:1041C40052F823303B617B6903F00303DB000F22C9
:1041D40002FA03F3DB433A6913403B617B68524ABA
:1041E400934225D07B68514A93421FD07B68504A42
:1041F400934219D07B684F4A934213D07B684E4A4E
:1042040093420DD07B684D4A934207D07B684C4A59
:10421400934201D106230CE007230AE0052308E0BA
:10422400042306E0032304E0022302E0012300E068
:1042340000237A6902F00302D20093403A691343DF
:104244003B6138497B699B0818333A6941F823205C
:10425400344B1B683B61FB68DB433A6913403B61A9
:104264003B685B6803F48013002B03D03A69FB6856
:1042740013433B612B4A3B6913602A4B5B683B61E8
:10428400FB68DB433A6913403B613B685B6803F4BA
:104294000013002B03D03A69FB6813433B61214AA6
:1042A4003B6953601F4BD3F884303B61FB68DB43AD
:1042B4003A6913403B613B685B6803F40033002BAD
:1042C40003D03A69FB6813433B61164A3B69C2F861
:1042D4008430144BD3F880303B61FB68DB433A698C
:1042E40013403B613B685B6803F48033002B03D0CD
:1042F4003A69FB6813433B610A4A3B69C2F8803060
:104304007B6901337B613B681A687B6922FA03F39A
:10431400002B7FF49FAE00BF00BF1C37BD465DF885
:10432400047B704700F40240000002420004024291
:1043340000080242000C0242001002420014024231
:104344000018024280B485B000AF78600B467B80D1
:104354007B681A697B881340002B02D00123FB730E
:1043640001E00023FB73FB7B18461437BD465DF860
:10437400047B704780B483B000AF78600B467B80C9
:1043840013467B707B78002B03D07A887B689A6114
:1043940002E07A887B689A6200BF0C37BD465DF8FC
:1043A400047B704780B582B000AF78607B68002BD7
:1043B40001D1012381E07B6893F84130DBB2002B0B
:1043C40006D17B68002283F840207868FDF748F91D
:1043D4007B68242283F841207B681B681A687B6809
:1043E4001B6822F001021A607B685A687B681B68AC
:1043F40022F070621A617B681B689A687B681B688C
:1044040022F400429A607B68DB68012B07D17B6849
:104414009A687B681B6842F400429A6006E07B68F5
:104424009A687B681B6842F404429A607B68DB6884
:10443400022B04D17B681B684FF400625A607B68CE
:104444001B685B687A68126843F0007343F40043A6
:1044540053607B681B68DA687B681B6822F400423F
:10446400DA607B681A697B685B6942EA03017B68EE
:104474009B691A027B681B680A43DA607B68D96906
:104484007B681A6A7B681B680A431A607B681B682E
:104494001A687B681B6842F001021A607B6800227C
:1044A4005A647B68202283F841207B6800221A63C7
:1044B4007B68002283F84220002318460837BD4653
:1044C40080BD80B483B000AF786039607B6893F8B6
:1044D4004130DBB2202B38D17B6893F84030012B7C
:1044E40001D1022332E07B68012283F840207B68FB
:1044F400242283F841207B681B681A687B681B6848
:1045040022F001021A607B681B681A687B681B68CA
:1045140022F480521A607B681B6819687B681B68E8
:104524003A680A431A607B681B681A687B681B68D0
:1045340042F001021A607B68202283F841207B68E4
:10454400002283F84020002300E0022318460C37A1
:10455400BD465DF8047B704780B485B000AF7860D9
:1045640039607B6893F84130DBB2202B39D17B680A
:1045740093F84030012B01D1022333E07B68012200
:1045840083F840207B68242283F841207B681B68E1
:104594001A687B681B6822F001021A607B681B683A
:1045A4001B68FB60FB6823F47063FB603B681B02C1
:1045B400FA681343FB607B681B68FA681A607B68BF
:1045C4001B681A687B681B6842F001021A607B68EA
:1045D400202283F841207B68002283F840200023B6
:1045E40000E0022318461437BD465DF8047B70478B
:1045F40080B485B000AF78600023FB730B4B1B685D
:1046040003F00103002B02D00123FB7307E0074BE7
:104614001B6823F0040205497B6813430B60FB7B92
:1046240018461437BD465DF8047B70470004034008
:1046340080B400AF054B1B68044A43F001031360C8
:1046440000231846BD465DF8047B70470004034010
:1046540080B586B002AF78600023FB73FEF738FAAA
:10466400B8607B68002B02D10123FB73A2E07B6856
:1046740000221A657B68DB6C002B40F09B80786815
:10468400FDF7F0F841F28831786800F09BF87B6818
:104694001B689A684A4B13407A68D1687A68126931
:1046A400013A120411437A685269013A1202114321
:1046B4007A68526B11437A68D26911437A68126836
:1046C4000B4393607B681B68DB6823F4E0217B6801
:1046D4001A6A7B681B680A43DA607B681A6B7B681A
:1046E4001B6812041A617B681B687A68926B5A61B2
:1046F4007B681B681B6823F4F8517B685B68013B8B
:104704001A027B681B680A431A607B685B6D00931E
:10471400BB6800222021786800F063F80346FB732D
:10472400FB7B002B46D17B681B68DB6823F0FF0111
:104734007B685B6A5A1E7B681B680A43DA607B6885
:104744001B681B6823F040017B689A687B681B68C0
:104754000A431A607B681B68D3F8083123F0A04130
:104764007B689A6A7B68DB6A1A437B681B680A4326
:10477400C3F808217B681B681A687B681B6842F0D1
:1047840001021A607B689B69022B07D17B681B6856
:104794009A687B681B6842F002029A607B68DB6857
:1047A400B3F1806F03D17B680122DA6402E07B6895
:1047B4000222DA64FB7B18461037BD4680BD00BF79
:1047C400F4F8E0F880B483B000AF786039607B68B7
:1047D4003A685A65002318460C37BD465DF8047BD9
:1047E400704780B584B000AFF860B9603B60134691
:1047F400FB711AE0BB69B3F1FF3F16D0FEF768F90D
:1048040002463B68D31ABA699A4202D3BB69002BA9
:104814000BD1FB684FF40072DA64FB681B6D43F044
:104824000102FB681A6501230EE0FB681B681A6A23
:10483400BB681340002B14BF01230023DBB21A46CC
:10484400FB799A42D6D1002318461037BD4680BD65
:10485400F0B58BB006AF78607B68002B01D10123E3
:10486400CBE07B6893F8A932DBB2002B06D17B68DE
:10487400002283F8A822786818F098FE7B68032247
:1048840083F8A9227B681B68184609F054FD0023AD
:10489400FB7340E0FB7B79685A1C13469B0013446E
:1048A400DB000B44013301221A70FB7B79685A1C2C
:1048B40013469B001344DB000B44FA7B1A70FB7B0A
:1048C40079685A1C13469B001344DB000B440333E2
:1048D40000221A70FA7B796813469B001344DB00AC
:1048E4000B44383300221A60FA7B796813469B0024
:1048F4001344DB000B443C3300221A60FA7B7968D2
:1049040013469B001344DB000B44403300221A601F
:10491400FB7B0133FB73FA7B7B685B689A42B9D3F8
:104924000023FB7344E0FA7B796813469B0013442D
:10493400DB000B4403F2691300221A70FA7B7968D6
:1049440013469B001344DB000B4403F5B473FA7B5A
:104954001A70FA7B796813469B001344DB000B44FE
:1049640003F26B1300221A70FA7B796813469B00DA
:104974001344DB000B4403F5BC7300221A60FA7B7A
:10498400796813469B001344DB000B4403F5BE73A4
:1049940000221A60FA7B796813469B001344DB00FB
:1049A4000B4403F5C07300221A60FB7B0133FB73D5
:1049B400FA7B7B685B689A42B5D37B681B683B6073
:1049C4007E686D4606F110040FCC0FC523682B607A
:1049D400331D0ECB386809F0C9FC7B68002283F8CC
:1049E40024207B68012283F8A9227B68DB69012BE0
:1049F40002D1786801F044FC002318461437BD4600
:104A0400F0BD80B582B000AF78607B6893F8A832BF
:104A1400012B01D1022312E07B68012283F8A82232
:104A24007B681B68184609F06FFC7B681B68184696
:104A34000BF033FF7B68002283F8A822002318467A
:104A44000837BD4680BD80B584B000AF78607B6810
:104A54001B6818460BF038FFF860FB6803F400434A
:104A6400002B03D0786800F005FB10E1FB6803F429
:104A74008063002B13D07B681B68B3F844309AB270
:104A84007B681B6822F4806292B2A3F844207868A1
:104A940018F04BFE0021786800F0FCF8F7E0FB68A2
:104AA40003F48043002B0CD07B681B68B3F84430BC
:104AB4009AB27B681B6822F4804292B2A3F8442025
:104AC400E5E0FB6803F40053002B0CD07B681B6803
:104AD400B3F844309AB27B681B6822F4005292B255
:104AE400A3F84420D3E0FB6803F48053002B34D0B4
:104AF4007B681B68B3F840309AB27B681B6822F06D
:104B0400040292B2A3F840207B681B68B3F84030DB
:104B14009AB27B681B6822F0080292B2A3F8402084
:104B24007B6893F8E032012B07D17B68002283F87D
:104B3400E0220021786818F0EDFF786818F02EFE66
:104B44007B681B68B3F844309AB27B681B6822F414
:104B5400805292B2A3F8442099E0FB6803F4006306
:104B6400002B27D07B681B68B3F840309AB27B686F
:104B74001B6842F0080292B2A3F840207B681B68CD
:104B8400B3F844309AB27B681B6822F4006292B294
:104B9400A3F844207B681B68B3F840309AB27B6862
:104BA4001B6842F0040292B2A3F84020786818F01F
:104BB400DBFD6CE0FB6803F08003002B40D07B68D6
:104BC4001B68B3F844309AB27B681B6822F08002F9
:104BD40092B2A3F844207B6893F8E032002B2BD1E7
:104BE4007B681B68B3F840309AB27B681B6842F05C
:104BF400040292B2A3F840207B681B68B3F84030EB
:104C04009AB27B681B6842F0080292B2A3F8402073
:104C14007B68012283F8E0227B681B68B3F8543078
:104C24009BB29B0803F03C027B68C3F8E422012199
:104C3400786818F06FFF2AE0786818F095FD26E090
:104C4400FB6803F40073002B0FD07B681B68B3F878
:104C540044309AB27B681B6822F4007292B2A3F8C3
:104C64004420786818F053FD11E0FB6803F4807366
:104C7400002B0CD07B681B68B3F844309AB27B6875
:104C84001B6822F4807292B2A3F8442000BF10374C
:104C9400BD4680BD80B582B000AF78600B46FB7026
:104CA4007B6893F8A832012B01D1022313E07B68BF
:104CB400012283F8A8227B68FA7883F824207B6891
:104CC4001B68FA78114618460BF0D3FD7B68002266
:104CD40083F8A822002318460837BD4680BD80B556
:104CE40084B000AF7860084611461A460346FB704C
:104CF4000B463B801346BB700023FB7297F90330CD
:104D0400002B0EDAFB7803F007035A1C13469B00B2
:104D14001344DB007A681344FB60FB6801225A7079
:104D24000EE0FB7803F0070213469B001344DB00FC
:104D340003F5B4737A681344FB60FB6800225A706D
:104D4400FB7803F00703DAB2FB681A703A88FB6851
:104D54001A61FB68BA78DA70BB78022B02D1FB685F
:104D640000221A717B6893F8A832012B01D1022327
:104D74000EE07B68012283F8A8227B681B68F9682F
:104D8400184609F015FB7B68002283F8A822FB7AF9
:104D940018461037BD4680BD80B584B000AF78603A
:104DA4000B46FB7097F90330002B0EDAFB7803F007
:104DB40007035A1C13469B001344DB007A68134410
:104DC400FB60FB6801225A700EE0FB7803F00702D7
:104DD40013469B001344DB0003F5B4737A68134451
:104DE400FB60FB6800225A70FB7803F00703DAB219
:104DF400FB681A707B6893F8A832012B01D1022357
:104E04000EE07B68012283F8A8227B681B68F9689E
:104E1400184609F091FE7B68002283F8A82200233B
:104E240018461037BD4680BD80B586B000AFF86027
:104E34007A603B600B46FB72FB7A03F00702134671
:104E44009B001344DB0003F5B473FA6813447B61DD
:104E54007B697A685A617B693A689A617B69002246
:104E6400DA617B6900225A70FB7A03F00703DAB235
:104E74007B691A70FB681B68796918460AF049F85F
:104E8400002318461837BD4680BD80B483B000AFF8
:104E940078600B46FB70FB7803F0070279681346D1
:104EA4009B001344DB000B4403F5C2731B681846D4
:104EB4000C37BD465DF8047B704780B586B000AF03
:104EC400F8607A603B600B46FB72FB7A03F00703E1
:104ED4005A1C13469B001344DB00FA6813447B619D
:104EE4007B697A685A617B693A689A617B690122B5
:104EF40083F824207B693A681A627B690022DA61AC
:104F04007B6901225A70FB7A03F00703DAB27B69EA
:104F14001A70FB681B687969184609F0FAFF0023C8
:104F240018461837BD4680BD80B584B000AF7860A0
:104F34000B46FB70FB7803F007027B685B689A42C0
:104F440001D901233EE097F90330002B0EDAFB78F8
:104F540003F007035A1C13469B001344DB007A68D2
:104F64001344FB60FB6801225A700CE0FA78134684
:104F74009B001344DB0003F5B4737A681344FB60AD
:104F8400FB6800225A70FB6801229A70FB7803F0D8
:104F94000703DAB2FB681A707B6893F8A832012B16
:104FA40001D102230EE07B68012283F8A8227B68EA
:104FB4001B68F96818460BF05DFB7B68002283F8D8
:104FC400A822002318461037BD4680BD80B584B0A2
:104FD40000AF78600B46FB70FB7803F00F027B6830
:104FE4005B689A4201D9012340E097F90330002B12
:104FF4000EDAFB7803F007035A1C13469B00134494
:10500400DB007A681344FB60FB6801225A700EE0EF
:10501400FB7803F0070213469B001344DB0003F5FF
:10502400B4737A681344FB60FB6800225A70FB680F
:1050340000229A70FB7803F00703DAB2FB681A7057
:105044007B6893F8A832012B01D102230EE07B6820
:10505400012283F8A8227B681B68F96818460BF0C4
:105064005AFB7B68002283F8A822002318461037D5
:10507400BD4680BD80B596B000AF7860B0E37B6874
:105084001B68B3F84430A7F84E30B7F84E30DBB2A3
:1050940003F00F0387F84D3097F84D30002B40F0A4
:1050A4007281B7F84E3003F01003002B4FD17B68A8
:1050B4001B681B889BB223F4E14323F07003FB813C
:1050C4007B681A68FB896FEA43436FEA53439BB2D8
:1050D40013807B6828337B657B681B68B3F850308A
:1050E4009BB21A467B6D1B78DB0013447A68126806
:1050F400134403F202431B88C3F309027B6DDA6194
:105104007B6D5A697B6DDB691A447B6D5A610021A2
:10511400786818F0E2FA7B6893F82430DBB2002B4D
:1051240000F05E837B6D9B69002B40F059837B68A4
:1051340093F82430DBB263F07F03DAB27B681B6838
:10514400A3F84C207B68002283F8242048E37B6882
:1051540003F5B4737B657B681B681B88A7F84A302A
:10516400B7F84A3003F40063002B32D07B681B6825
:10517400B3F850309BB21A467B6D1B78DB001344A6
:105184007A681268134403F206431B88C3F30902C6
:105194007B6DDA617B6818687B6803F52C717B6D25
:1051A400DA887B6DDB699BB20BF0E0FB7B681B68E4
:1051B4001B889AB240F68F7313403B827B681B684E
:1051C4003A8A42F0800292B21A80786818F058FA4B
:1051D40006E3B7F94A30002B80F202837B681B6830
:1051E4001B889AB240F68F731340FB837B681B685D
:1051F400FA8B42F0800292B21A807B681B68B3F883
:1052040050309BB21A467B6D1B78DB0013447A68DE
:105214001268134403F206431B88C3F309027B6D2F
:10522400DA617B6DDB69002B19D07B6D5B69002B28
:1052340015D07B6818687B6D59697B6DDA887B6D46
:10524400DB699BB20BF092FB7B6D5A697B6DDB696A
:105254001A447B6D5A610021786818F023FA7B6840
:105264001B681B88A7F84A30B7F84A3003F4006378
:10527400002B40F0B582B7F84A3003F44053B3F53D
:10528400405F00F0AD827B681B68BB617B681B6874
:10529400B3F850309BB21A46BB691344BB61BB6977
:1052A40003F206437B617B691B889BB2C3F309034A
:1052B4009AB27B691A807B6D1B693E2B1DD97B6D6D
:1052C4001B695B097B647B6D1B6903F01F03002B67
:1052D40002D17B6C013B7B647B691B889AB27B6C3B
:1052E4009BB29B029BB213439BB26FEA43436FEAA8
:1052F40053439AB27B691A8026E07B6D1B69002BAD
:105304000AD17B691B889BB26FEA43436FEA53431C
:105314009AB27B691A8017E07B6D1B695B087B641A
:105324007B6D1B6903F00103002B02D07B6C0133FE
:105334007B647B691B889AB27B6C9BB29B029BB299
:1053440013439AB27B691A807B681B681B889BB2E3
:1053540023F4804323F070037B827B8A83F480539D
:105364007B827B8A83F400537B827B681A687B8A06
:1053740043F07F4343F47F0343F4004343F080034B
:105384009BB213802CE27B681B681A4697F84D3059
:105394009B0013441B88A7F84A30B7F94A30002B06
:1053A40080F2F6807B681B681A4697F84D309B00A4
:1053B40013441B889AB240F68F731340A7F8483001
:1053C4007B681B681A4697F84D309B001344B7F866
:1053D400482042F0800292B21A8097F84D2013467A
:1053E4009B001344DB0003F5B4737A6813447B65B4
:1053F4007B6D1B7B002B23D17B681B68B3F850307B
:105404009BB21A467B6D1B78DB0013447A681268E2
:10541400134403F206431B88C3F30903A7F850306F
:10542400B7F85030002B00F08E807B6818687B6DD5
:1054340059697B6DDA88B7F850300BF097FA82E03F
:105444007B6DDB78022B0AD1B7F84A301A46796DA6
:10545400786800F0D3F90346A7F8503073E07B680E
:105464001B681A467B6D1B789B0013441B889BB2F8
:1054740023F4E04323F07003A7F852307B681B68E1
:105484001A467B6D1B789B001A44B7F8523043F0E0
:105494007F4343F47F0343F4004343F0C0039BB2D0
:1054A40013807B681B681A467B6D1B789B00134432
:1054B4001B889BB203F48043002B22D07B681B68BB
:1054C400B3F850309BB21A467B6D1B78DB00134453
:1054D4007A681268134403F202431B88C3F3090376
:1054E400A7F85030B7F85030002B2CD07B681868E0
:1054F4007B6D59697B6D1A89B7F850300BF036FA19
:1055040021E07B681B68B3F850309BB21A467B6D70
:105514001B78DB0013447A681268134403F20643D1
:105524001B88C3F30903A7F85030B7F85030002B99
:1055340009D07B6818687B6D59697B6D5A89B7F807
:1055440050300BF013FA7B6DDA69B7F850301A4417
:105554007B6DDA617B6D5A69B7F850301A447B6D04
:105564005A617B6D9B69002B05D0B7F850207B6D89
:105574001B699A4206D27B6D1B781946786818F02D
:1055840091F805E07B681B68796D184609F0C1FC49
:10559400B7F84A3003F08003002B00F0218197F81C
:1055A4004D305A1C13469B001344DB007A681344A5
:1055B4007B657B681B681A4697F84D309B00134443
:1055C4001B889BB223F4E14323F07003A7F8423015
:1055D4007B681B681A4697F84D309B001A44B7F84D
:1055E40042306FEA43436FEA53439BB213807B6DAF
:1055F400DB78012B40F0A2807B6D00229A617B6DE9
:105604001B7B002B00F09380B7F84A3003F0400373
:10561400002B46D07B6D5B78002B26D17B681B6802
:105624007B627B681B68B3F850309BB21A467B6A76
:1056340013447B627B6D1B78DA007B6A134403F2AC
:1056440002433B623B6A1B889BB2C3F309039AB2D1
:105654003B6A1A803B6A1B889BB26FEA43436FEA3A
:1056640053439AB23B6A1A8061E07B6D5B78012BED
:105674005DD17B681B68FB627B681B68B3F85030A4
:105684009BB21A46FB6A1344FB627B6D1B78DA00FB
:10569400FB6A134403F20243BB62BB6A00221A8012
:1056A40045E07B681B68FB637B6D5B78002B26D130
:1056B4007B681B687B637B681B68B3F850309BB2C4
:1056C4001A467B6B13447B637B6D1B78DA007B6B20
:1056D400134403F206433B633B6B1B889BB2C3F347
:1056E40009039AB23B6B1A803B6B1B889BB26FEA2F
:1056F40043436FEA53439AB23B6B1A8017E07B6DC6
:105704005B78012B13D17B681B68B3F850309BB2D4
:105714001A46FB6B1344FB637B6D1B78DA00FB6B4F
:10572400134403F20643BB63BB6B00221A807B6DF8
:105734001B781946786817F0D0FF51E0B7F84A3063
:1057440003F48073002B44D17B681B68B3F850309A
:105754009BB21A467B6D1B78DB0013447A6812688F
:10576400134403F202431B88C3F30903A7F8403030
:105774007B6D9A69B7F840309A4207D97B6D9A6974
:10578400B7F84030D21A7B6D9A6102E07B6D00223B
:105794009A617B6D9B69002B06D17B6D1B78194642
:1057A400786817F09AFF1BE07B6D5A69B7F84030B0
:1057B4001A447B6D5A617B6DDA69B7F840301A443C
:1057C4007B6DDA617B681B68796D184609F0A1FB73
:1057D40006E0B7F84A301A46796D786800F017F990
:1057E4007B681B68B3F844309BB21BB2002BFFF6F6
:1057F40046AC002318465837BD4680BD80B588B0F6
:1058040000AFF860B9601346FB80FB8803F4804363
:10581400002B7CD0FB681B68B3F850309BB21A464F
:10582400BB681B78DB001344FA681268134403F264
:1058340002431B88C3F309037B83BB689A697B8B90
:105844009A4206D3BB689A697B8BD21ABB689A6169
:1058540002E0BB6800229A61BB689B69002B23D1DC
:10586400FB681B681A46BB681B789B0013441B88A3
:105874009BB223F4804323F070033B833B8B83F47C
:1058840000533B83FB681B681A46BB681B789B006C
:105894001A443B8B43F07F4343F47F0343F40043B8
:1058A40043F080039BB21380FB8803F04003002B7A
:1058B4001FD0FB681B681A46BB681B789B00134407
:1058C4001B889BB223F4E04323F07003FB82FB6844
:1058D4001B681A46BB681B789B001A44FB8A43F07A
:1058E4007F4343F47F0343F4004343F0C0039BB27C
:1058F40013807B8B002B00F08580FB681868BB68E5
:105904005969BB681A897B8B0BF030F87AE0FB6825
:105914001B68B3F850309BB21A46BB681B78DB0097
:105924001344FA681268134403F206431B88C3F352
:1059340009037B83BB689A697B8B9A4206D3BB6855
:105944009A697B8BD21ABB689A6102E0BB68002219
:105954009A61BB689B69002B23D1FB681B681A46BC
:10596400BB681B789B0013441B889BB223F48043C1
:1059740023F07003FB83FB8B83F40053FB83FB68EE
:105984001B681A46BB681B789B001A44FB8B43F0C8
:105994007F4343F47F0343F4004343F080039BB20B
:1059A4001380FB8803F04003002B1FD1FB681B68A6
:1059B4001A46BB681B789B0013441B889BB223F4D4
:1059C400E04323F07003BB83FB681B681A46BB6883
:1059D4001B789B001A44BB8B43F07F4343F47F0343
:1059E40043F4004343F0C0039BB213807B8B002B32
:1059F40008D0FB681868BB685969BB685A897B8BF7
:105A04000AF0B4FF7B8B18462037BD4680BD80B5B5
:105A1400A4B000AFF860B9601346FB80FB8803F0C4
:105A24004003002B00F0DB81FB681B68B3F85030A7
:105A34009BB21A46BB681B78DB001344FA681268F1
:105A4400134403F202431B88C3F30903A7F8863007
:105A5400BB689A69B7F886309A4207D9BB689A69D5
:105A6400B7F88630D21ABB689A6102E0BB6800229C
:105A74009A61BB689B69002B40F0B980BB685B7876
:105A8400002B26D1FB681B68FB62FB681B68B3F81C
:105A940050309BB21A46FB6A1344FB62BB681B7806
:105AA400DA00FB6A134403F20243BB62BB6A1B883D
:105AB4009BB2C3F309039AB2BB6A1A80BB6A1B8800
:105AC4009BB26FEA43436FEA53439AB2BB6A1A80AC
